:020000040800F2
:10000000A00E002079020008810200088302000887
:10001000850200088702000889020008000000002D
:100020000000000000000000000000008B0200083B
:100030008D020008000000008F0200080D14000867
:10004000930200089302000893020008930200083C
:10005000930200089302000893020008930200082C
:100060009302000893020008930200089D0500080F
:10007000930200089302000893020008930200080C
:1000800093020008930200089302000893020008FC
:1000900093020008930200089302000893020008EC
:1000A00093020008930200089302000893020008DC
:1000B00093020008930200088918000893020008C0
:1000C00093020008930200089302000893020008BC
:1000D00093020008930200089302000893020008AC
:1000E00093020008D512000893020008930200084A
:1000F00093020008411900089302000893020008C7
:10010000930200089302000893020008930200087B
:100110009302000855280008930200089302000883
:100120006D0600089302000893020008930200087D
:100130009302000800000000000000009302000885
:10014000930200089302000893020008930200083B
:10015000930200089302000893020008930200082B
:10016000930200089302000893020008930200081B
:100170009302000893020008000000000000000045
:10018000930200089302000800F002F800F064F8FF
:100190000AA090E8000C82448344AAF10107DA45E2
:1001A00001D100F059F8AFF2090EBAE80F0013F0D0
:1001B000010F18BFFB1A43F001031847783C0000F9
:1001C000983C000010F8013B0A4413F0030408BFF8
:1001D00010F8014B1D1108BF10F8015B641E05D01B
:1001E00010F8016B641E01F8016BF9D1002D15D0D8
:1001F00010F8014B03F00C030C2BA1EB04040ABF15
:1002000010F8013BA4EB8314A4EB032405F10103D4
:1002100014F8016B5B1E01F8016BF9D5914238BFF0
:1002200010F8013BD1D3704700230024002500269D
:10023000103A28BF78C1FBD8520728BF30C148BF49
:100240000B6070471FB503F0EDFD9DE8030000F063
:100250008BF81FBD10B510BD00F011F91146FFF766
:10026000F1FF02F01DFE00F056F803B4FFF7F2FFB5
:1002700003BC00F0FDF8000009488047094800472A
:10028000FEE7FEE7FEE7FEE7FEE7FEE7FEE7FEE746
:10029000FEE7FEE704480549054A064B70470000A3
:1002A0006114000889010008A0050020A00E0020AC
:1002B000A00A0020A00A002070B5064600F038F819
:1002C000056806F10B0020F00704B4429CBF002033
:1002D00070BD2B466A68BAB11068A04210D304F111
:1002E000080188423CBF5068586007D35168101914
:1002F00041601168091B016058601460101D70BDD9
:1003000013465268002AE7D12146284600F018F823
:100310000028DED170BD10B50446AFF30080204642
:10032000BDE81040FFF7A1BF70477047704700005D
:100330000048704744050020704770477047704779
:1003400038B504460A4600206946AFF3008000280D
:1003500008BF38BD02460099204600F067F801202A
:1003600038BD012000F07CB8F8B5AFF30080054639
:1003700000200C46102000BF0646A819A0420DD947
:10038000324669460020AFF30080070008BF00F046
:1003900067F80098A04218BF0546C419FFF7C8FFC8
:1003A00005600746F01D20F007004619284600F0BA
:1003B0000AF8B44208BFF8BDA21B31463868BDE850
:1003C000F84000F033B800210160C0E90110704727
:1003D0001020704770B50446051FFFF7A9FF00689D
:1003E000002C14BF446870BD002C18BFAC423CBF49
:1003F00020466468F8D301680A18AA4218BF45600D
:1004000003D12A6805461144016028684119A142B8
:100410001CBF6C6070BD6168696021680844286019
:1004200070BD0000004870473C050020034640684E
:100430008C46002818BF88423CBF03464068F8D36A
:1004400018681844884207D00CF1030020F0070018
:10045000001D411A521A0146081D0A60FFF7BABF73
:1004600010B500F037F8BDE8104000F02DB80000DE
:1004700001491820ABBEFEE7260002007047754612
:10048000FFF7D0FFAE4605006946534620F007004F
:10049000854618B020B5FFF7FDFEBDE820404FF0BF
:1004A00000064FF000074FF000084FF0000B21F05E
:1004B0000701AC46ACE8C009ACE8C009ACE8C0092B
:1004C000ACE8C0098D467047002801D0FFF7D0BFC7
:1004D0007047000010B5012805D0002103A000F0EE
:1004E00021F8012010BD09A1F8E700005349475247
:1004F000544D454D3A204F7574206F6620686561F4
:1005000070206D656D6F7279000000003A204865BB
:100510006170206D656D6F727920636F7272757096
:100520007465640070B505460C460A2000E06D1C39
:1005300000F011F835B128780028F8D102E0641CE9
:1005400000F009F814B120780028F8D1BDE8704017
:100550000A20AFF3008008B569468DF8000003203B
:10056000ABBE08BD4FF064610A4AD160C0EBC00168
:10057000094A1144074AC43211600721054AC2F8EA
:10058000BC101146D1F8B81041F00101C2F8B81002
:1005900070470000006002408602002000B53D2048
:1005A0002C4988602C48C8611420486108460069BD
:1005B00040F001000861284800780D2849D12648FC
:1005C00040780A2845D12448C078492806D05028C8
:1005D0001FD0522825D0552827D103E000201F49DD
:1005E000087022E01C480079312803D100201B4903
:1005F00008700DE018480079332803D016480079B8
:10060000352805D11548007810B901201349087024
:100610000BE012480078022802D103200F4908702D
:1006200003E002200D49087000BF00BF0C480078AD
:1006300002280ED10B48007801280AD10749097811
:1006400001EB410202EB0111074A8818132100F067
:100650005BFF00BD00600240E0040020A902002012
:1006600000000020030000201A01002010B5514AAC
:10067000126842F001024F4B1A604F4A126842F072
:100680003D024D4B1A604D4A12884D4B4D4C24781B
:1006900023F81420494A5388494A1432494C247893
:1006A00022F814300022484B1A605A6000BF12E052
:1006B000454B1B68424C34F812402344424C2360A3
:1006C00023465C683E4B143333F8123023443E4CCF
:1006D0006360531CDAB20A2AEADB3B4A12680A2337
:1006E000B2FBF3F2384B1A601A4652680A23B2FB87
:1006F000F3F2354B5A60334A1278521C314B1A7060
:100700001A4612780A2A01D100221A702E4A12685B
:10071000B6235A4340F6FF73B2FBF3F2D0B22A4A33
:100720005268B6235A4340F6FF73B2FBF3F2D1B2DC
:10073000642290FBF2F23032244B5A72642290FB16
:10074000F2F202EBC20303EB0212A0EB82020A23D5
:1007500092FBF3F230321D4B9A720A2290FBF2F2B6
:1007600002EB8202A0EB420230321A73642291FB48
:10077000F2F230325A74642291FBF2F202EBC203BD
:1007800003EB0212A1EB82020A2392FBF3F2303256
:100790000E4B9A740A2291FBF2F202EB8202A1EB59
:1007A00042023032DA74034A126842F48032014B5A
:1007B0001A6010BD1804024008640240C002002004
:1007C00014050020DC040020B802002054020020A0
:1007D00030B503460C463A48006840F48070384D06
:1007E000286007E036481430006800F4807008B1D3
:1007F000012030BD32481430006800F001000028AC
:10080000F0D02F48143000682D48183000682C486C
:100810001030036013E02A481430006800F4807040
:1008200028B927481430006800F4806038B12448A3
:10083000006840F40070224D28600220D9E720486B
:100840001430006800F002000028E4D01C48143086
:1008500000681B4818300068002127E0605C184DD4
:100860001035286013E016481430006800F48070DA
:1008700028B913481430006800F4806038B110487B
:10088000006840F400700E4D28600320B1E70C486A
:100890001430006800F004000028E4D00848143048
:1008A0000068074818300068481C81B29142D5DBC7
:1008B0000348006840F40070014D2860002098E76C
:1008C0000054004038B505460020009068788DF847
:1008D0000000AC68E0784042A1798840C0B28DF851
:1008E00001006469E078A17988409DF8011008430F
:1008F000C0B28DF801006469E078A17988409DF864
:1009000001100843C0B28DF8010002226946882018
:10091000FFF75EFF38BD38B505460C466878A1790B
:100920000844C0B28DF8000094F90300002802DDED
:1009300094F9030003E094F90300C0F11000C0B281
:100940008DF80100022269468820FFF741FF38BD7B
:100950007CB505460020019068788DF804001EA043
:1009600000680090AC68E07804280AD13D208DF83A
:100970000100E078401EA1798840C0B28DF80500E2
:1009800008E01D208DF80100E078A1798840C0B210
:100990008DF805006469E078A17988409DF805101C
:1009A0000843C0B28DF805006469E078A1798840F9
:1009B0009DF805100843C0B28DF805000222694673
:1009C0008820FFF705FF0646022201A98820FFF7CD
:1009D000FFFE064330467CBD0400000038B50546E6
:1009E0000020009068788DF80000AC6894F903004E
:1009F000002804DD94F90300C0F11F0002E094F91F
:100A000003000F30C0B28DF801006469E078A1796D
:100A100088409DF801100843C0B28DF80100022201
:100A200069468820FFF7D4FE38BD00002D480068D5
:100A300040F480702B4908602B482C498860881549
:100A400048604FF4580008614FF48010C862E620F7
:100A5000486324481438006840F480002149143960
:100A600008602348006842F6105108432049086096
:100A70001E484C301E49083108601E48091D086098
:100A800002201B49091D0860081F006840F0010092
:100A9000091F086016480838006840F03D001449F6
:100AA000083908600F48001F006840F002000D4937
:100AB000091F086042F2CF000F4908604FF4FA7036
:100AC000091D08600C482438006840F020000A49DD
:100AD00024390860081F006840F00100091F086001
:100AE0007047000044380240010300180020014014
:100AF00010640240C00200202804004010B51F48C6
:100B0000006840F480101D4908604FF4B6701C491D
:100B1000886042F21C00C860C02048611748103845
:100B2000006840F40010154910390860154816494E
:100B300008611348001D88611448C8611420486189
:100B40000846006940F0010008610F48B8300068AD
:100B500020F00100C1F8B8000A4830300A49B83125
:100B600008600748001D0849C1F8C000352002F0A0
:100B700045F80B2002F042F810BD0000403802405A
:100B8000005000401004000800600240E004002013
:100B90008048006840F00F007E4908607E48006889
:100BA00040F015007C4908607C48006840F4A06073
:100BB0007A4908607848006820F440507649086017
:100BC0000846006840F4805008600846006840F01D
:100BD000805008607248006840F4803070490860B6
:100BE0006E48006840F080606C4908606C48006A9C
:100BF00040F088006A4908620846C06840F0050075
:100C0000C8600846806840F00F00886008460068A9
:100C100040F00A0008606048406A40F4EE415E48D7
:100C200041625D480C30006840F4A0005A490C3124
:100C30000860081F00685B4908435749083108608D
:100C40005548006840F42000534908605348406A02
:100C500040F40021514841625348006840F400606C
:100C6000514908604D480C30006840F080704B4995
:100C70000C3108604C481438006840F010004A49B4
:100C80001439086045480830006840F04070434916
:100C90000831086044481838006840F03000424984
:100CA000183908603D48006840F000703B49086012
:100CB0003D482038006840F020003B49203908605A
:100CC0003548406A40F0440133484162006840F4CE
:100CD00020203149086030480C30006840F4A020E2
:100CE0002D490C3108602C48001D006840F440700C
:100CF0002949091D0860081D006840F47020091D7D
:100D000008602748006820F04040254908600846F0
:100D1000C06820F04040C8601F48006820F4407060
:100D20001D4908601C480C30006820F440701A49C6
:100D30000C3108601A4800681949086017480068B3
:100D40001649086014480068134908601448006890
:100D500040F47040124908600846806840F47040D2
:100D600088600846C068C8600846006840F40060B3
:100D700008600846806840F4406088600846C068A3
:100D800040F48060C8600846006A40F48010086241
:100D90007047000030380240000402400008024062
:100DA000000002400C003000200C02400A4800689D
:100DB00040F40010084908602D2008490860D2203E
:100DC0000649183108602B20091D086001200349DD
:100DD000091F08607047000040380240045400407A
:100DE0000848006840F480700649086042F2CF006D
:100DF0000549886240F2CF70C8620120C86008606F
:100E000070470000403802400020004010B51D48E7
:100E1000006840F005001B49086042F2CF001A4903
:100E2000086042F20F70091D086018201649283921
:100E300008601020091D0860012013491C39086052
:100E400000204FF080418862202048604006806882
:100E500044F235010843890788601E2001F0CEFE68
:100E60004FF08040006840F001004FF08041086082
:100E700005482838006840F0010003492839086017
:100E800010BD000040380240280800403CB500205A
:100E9000019000904E48006840F480304C49086052
:100EA00000BF4B48006800F4003000900198401CDF
:100EB0000190009818B90198B0F57A7FF1D14448B3
:100EC000006800F0020000285ED04248006840F44C
:100ED0008070404908600846006820F00F000860F4
:100EE0000846006840F0050008603948083000688E
:100EF0003749083108600846006840F4A05008608F
:100F00000846006840F400400860081F006840F48C
:100F10008000091F08600846006820F03F00086054
:100F20000846006840F0080008600846006847F678
:100F3000C07188432649091D08600846006840F4CE
:100F400028500860081F006840F08070091F086082
:100F500000BF1F48006800F000700028F9D01C484E
:100F60000830006820F0030019490831086008467D
:100F7000006840F00200086000BF154808300068B3
:100F800000F00C000828F8D144F2A011481EB0F17E
:100F9000807F00D31BE0481E4FF0E02250615017C5
:100FA0000F22002804DB13071C0E0B4B1C5406E019
:100FB00013071D0E094B00F00F04241F1D5500BF21
:100FC00000204FF0E02290610720106100BF3CBD7F
:100FD00000380240003C024000E400E018ED00E070
:100FE0004248006800F40040B0F5004F2FD03F4861
:100FF0003038006840F080503C49303908603C4847
:10100000006840F480703A4908603848006840F44D
:101010008030364908600846006820F48030086057
:101020000846006840F4014008600846006840F047
:101030000100086000BF2D48006800F00100002892
:10104000F9D02B48006820F48070294908602748AF
:101050003038006840F08050244930390860244816
:10106000006840F4807022490860CA202149086065
:10107000532008602048006840F400301E49086092
:101080001D481438006840F400301B4914390860CA
:10109000081D006820F40030091D0860081D006864
:1010A00040F40030091D086012481C38006820F424
:1010B000807010491C39086000BF0E48183800685D
:1010C00000F001000028F8D04FF0803009490839BD
:1010D000086008481C38006840F4885005491C39ED
:1010E0000860FF2003490860704700007038024024
:1010F0000070004024280040143C014038B5002016
:101100008DF800004A480078022804D149484A492D
:101110000978405C00E007208DF801000222694652
:101120008820FFF755FB044304208DF800001D20A4
:101130008DF80100022269468820FFF749FB04432D
:101140003E48006841683D480068884704430820DD
:101150008DF800003A4890F90000002803DD384877
:1011600090F9000004E0364890F90000C0F120003A
:10117000C0B28DF80100022269468820FFF728FBE3
:1011800004433048006841682E480068884704439B
:101190002D48006841682C480068884704432B4864
:1011A0000068416829480068884704432848006867
:1011B00041682748006888470443264800688568D6
:1011C0002448006829464268224800689047044342
:1011D0006D6920480068294642681E4800689047AB
:1011E00004436D691B480068294642681948006835
:1011F000904704436D6917480068294642681548BE
:101200000068904704436D691248006829464268A7
:1012100010480068904704436D690E4800682946ED
:1012200042680C48006890470443204638BD0000DF
:10123000000000202E3E000803000020A80400202B
:10124000D2040020AC040020B0040020B40400202C
:10125000B8040020BC0400201048006840F480203E
:101260000E4908604FF4B6700D49086042F208005C
:10127000091D086080200A490C31086007481038B1
:10128000006840F400100549103908600548064917
:1012900088650348001F0866704700004038024018
:1012A0000848004040040008006002400748006809
:1012B00040F400200549086041F217100449086015
:1012C00042F20C00091D08607047000040380240DF
:1012D000084C004000B54548006840F00200434912
:1012E00008604348006820F4807041490860414824
:1012F000006840F400303F4908603D480C38006801
:10130000C0F3032030303C49887339480C380068FA
:10131000C0F302303030487335480C380068C0F3F1
:1013200003403030C87232480C380068C0F30150B6
:10133000303088722E480838006800F00F003030D6
:1013400088772B4808380068C0F3011030304877A0
:10135000274808380068C0F30320303081F82100A6
:10136000234808380068C0F30030303081F820008E
:101370001F4808380068C0F30340303081F824006B
:101380001B4808380068C0F30350303081F8230050
:10139000174808380068C0F34230401E00EBC00018
:1013A000164908441449323102680A6042684A60AA
:1013B000007A087212480078022803D0104800789A
:1013C00001280BD13F210C4800F09EF819210D484F
:1013D00000F09AF819210C4800F096F803480068CC
:1013E00040F400300149086000BD000018040240CC
:1013F0000C280040143C014018000020310300205C
:1014000000000020540200206D02002012480068F5
:10141000401C114908600846006841F28831884242
:1014200018D100200C4908600C48006800F0040046
:1014300040B10A48001D006840F480200749091D9A
:10144000086007E00548001D006840F004000349FB
:10145000091D086070470000D804002014040240F1
:101460001448006840F4700012490860124800688F
:1014700040F001001049086000200F490831086061
:101480000D4800680D4908400B4908600C48091DCB
:101490000860081F006820F48020091F08600020F1
:1014A00005490C3108604FF000600249803908603E
:1014B0007047000088ED00E000380240FFFFF6FEB4
:1014C000103000241CB5044640F6354060430D49F9
:1014D00001EB40108000C0F3CF3420128DF80000E3
:1014E000E0B28DF8010010208DF8020012208DF876
:1014F000030000208DF8040005226946C020FFF794
:1015000067F91CBDE86E030000BF0D4AD26D002ACA
:10151000FBD100BF0B4A126802F04002002AF9D04A
:101520000022084B1A60064A5066D1654FF064628B
:10153000034B9A601A46926D42F001029A65704719
:10154000006002400048004000B52748007808B914
:10155000202007E0244890F90000002801DD2B201E
:1015600000E02D20214948721F4890F90000002812
:1015700006DD1D4890F900000A2190FBF1F006E01D
:10158000194890F9000040420A2190FBF1F03030F8
:1015900016498872144890F9000000280DDD1248A1
:1015A00090F900000A2190FBF1F000EB80000E4959
:1015B00091F90010A1EB40000EE00B4890F90000FB
:1015C00040420A2190FBF1F000EB8000064991F9BE
:1015D00000104942A1EB400030300449C87220217C
:1015E0000248FFF791FF00BDD204002074010020E3
:1015F00000B59748007830B101284FD002285FD05D
:1016000003284AD114E11C219248FFF77DFF0E21E7
:101610009148FFF779FF914800884FF47A7190FB69
:10162000F1F030308E4988728C4800884FF47A711E
:1016300090FBF1F000EB4001C1EBC0108749098835
:10164000A1EBC000642190FBF1F030308449C872F6
:1016500082480088642190FBF1F000EBC00101EBAF
:1016600000107E490988A1EB80000A2190FBF1F06F
:1016700030307B490873794800880A2190FBF1F0EB
:1016800000EB800075490978A1EB400030307449C7
:10169000887313217248FFF737FFD6E01C216D488D
:1016A000FFF732FF0E216C48FFF72EFF6D480068F0
:1016B00040F480406B4908600020FEF753FFC4E00F
:1016C0006848006840F0804066490860002066492C
:1016D00008700021092001F027FA644908700846C3
:1016E0000078012808D113216148FFF70DFF1C2164
:1016F0005848FFF709FF9AE00E215E48FFF704FF04
:101700001E21062001F010FA0021112001F00CFA30
:10171000482001F0B9F84C2001F0B6F8522001F051
:10172000B3F855480088642190FBF1F030305349FC
:10173000887351480088642190FBF1F000EBC001F0
:1017400001EB00104C490988A1EB80000A2190FBB5
:10175000F1F030304949C873474800880A2190FBAE
:10176000F1F000EB800044490978A1EB40003030F3
:101770004249087440484088642190FBF1F03030C1
:101780003E4988723C484088642190FBF1F000EBB0
:10179000C00101EB001038494988A1EB80000A2103
:1017A00090FBF1F030303549C872334840880A2147
:1017B00090FBF1F000EB80002F498978A1EB40000D
:1017C00030302E4908732C48007A88742A48407AB1
:1017D000C8742948807A08752748C07A4875264811
:1017E000007B88752448407B08762348807B4876B8
:1017F0002148C07B88762048007CC8761E48407C03
:1018000008771D48807C487750201D49C8724120C8
:10181000087355204873532088734520C8731321DB
:101820001748FFF771FE34211448FFF76DFE0CE0F6
:101830001C210848FFF768FE0E210748FFF764FEE9
:101840000E211048FFF760FE00BF00BF00BD000082
:10185000030000200E02002046020020D0040020D9
:101860000701002018040240A9020020CE04002035
:10187000B401002038020020F4040020DA01002026
:10188000C7010020660100202A48006820F00100FE
:10189000284908608806406A2749086000204FF000
:1018A0008041486223481038006840F00100214917
:1018B00010390860204800684FF47A71B0FBF1F0ED
:1018C00030301E4948721C4800684FF47A71B0FBF2
:1018D000F1F000EB4001C1EBC01017490968A1EB22
:1018E000C0006421B0FBF1F0303014498872124816
:1018F00000686421B0FBF1F000EBC00101EB0010C7
:101900000D490968A1EB80000A21B0FBF1F03030ED
:101910000A49C872084800680A21B0FBF1F000EBE0
:10192000800005490978A1EB400030300349087375
:101930007047000010080040D40400206D02002011
:1019400038B50020FE490861FE480078401CFD497A
:101950000870FD48006900F4806000283FD0FB4813
:101960000078401CF949087008460078142835DBD7
:10197000F7480078022831D114200870F548006833
:1019800040F08040F34908600846006840F040009D
:101990000860F148006840F00050EF4908600020FE
:1019A0008DF8000007208DF801000222694688208A
:1019B000FEF70EFFE94908700120E549087001F0C3
:1019C0009FF9E349097801EB4101E54A02EB810007
:1019D0000C21FFF799FD0E2000F056FF77E0DB4861
:1019E0000078142870DAD948007800286CD0D848DC
:1019F000007802280AD1DB480078401CD9490870D9
:101A000008460078032801DD00200870D0480078DF
:101A1000012802D10220CE490870CD480078012863
:101A200003D0CB48007802284ED101F069F9C849AB
:101A3000097801EB4101CA4A02EB81000C21FFF752
:101A400063FD00208DF80000C748C6490978405C56
:101A50008DF80100022269468820FEF7B9FEBF49D1
:101A6000087008208DF80000C04890F90000002898
:101A700003DDBE4890F9000004E0BC4890F9000086
:101A8000C0F12000C0B28DF8010002226946882012
:101A9000FEF79EFEB1490870AF48006840F4005060
:101AA000AD490860B249AF4A127801EB42102021DB
:101AB000FFF72AFDFFF79CFDFFF746FDA5480068EC
:101AC00040F48000A34908600020A04908709E48A7
:101AD000006900F4004000287ED09D48007802286C
:101AE00004D0032862D004285FD15DE19D480078CE
:101AF00000283AD0012804D0022806D0032853D168
:101B000034E00120FEF72EFD4EE09A4800780128CF
:101B100015D10E2000F0B8FE022096490870502022
:101B20009549C87241200873552048735320887323
:101B30004520087413219048FFF7E6FC14E00D20BF
:101B400000F0A2FE01208B49087050208A49C8721B
:101B50004C20087341204873592088732020C87393
:101B600013218548FFF7D0FC1EE000BF83480078B2
:101B700068B10020814908707748006840F400503F
:101B80007549086020217E48FFF7BEFC0CE001206B
:101B90007A4908707048006840F000506E4908604B
:101BA00020217848FFF7B0FC00BF0CE176480068C0
:101BB00040687649086008460068C0780A2190FBB2
:101BC000F1F0000571490968C9780A2291FBF2F128
:101BD00001EB81016D4A00E0F6E01268D278A2EBD9
:101BE000410140EA014569480068006967490860A9
:101BF00008460068C0780A2190FBF1F000036349B1
:101C00000968C9780A2291FBF2F101EB81015F4A70
:101C10001268D278A2EB410140EA012005435B48FB
:101C2000006800695949086008460068C0780A21C0
:101C300090FBF1F000EB800054490968C978A1EBF2
:101C4000400052490968C9780A2291FBF2F140EA42
:101C500001144E48006800694C4908600846006855
:101C6000C0780A2190FBF1F0010348480068C07871
:101C700090FBF2F000EB8000444A1268D278A2EBAD
:101C8000400041EA002004434048006800693F49A1
:101C9000086008460068C0780A2190FBF1F0010551
:101CA0003A480068C0780A2290FBF2F000EB80000E
:101CB000364A1268D278A2EB400041EA0040044361
:101CC0003248006800693149086008460068C078F9
:101CD00044EA4034002008602D48006840F08050FD
:101CE0002B490860CA202B49086053200860294806
:101CF0001838006840F0800026491839086000BF95
:101D000024481838006800F040000028F8D0214826
:101D100024380560001D04601E481838006820F053
:101D200080001C4918390860FF201A4908601A48C9
:101D3000007807490870097801EB4101084A2DE055
:101D400000200040DD04002000000240CC04002000
:101D5000000000201804024018080240CD040020B2
:101D600057000020030000202E3E0008D20400206F
:101D700087000020B3020020C7010020D304002008
:101D800074010020940100207003002074030020DF
:101D900040380240242800400100002002EB81006E
:101DA0000C21FFF7B1FB0EE000F0E2FF0220FE493C
:101DB0000870097801EB4101FC4A02EB81000C211B
:101DC000FFF7A2FB00BF00BFF948006900F4805094
:101DD00000287DD0F4480078022804D0032878D069
:101DE000042877D1FFE0F348007820B101285AD0C9
:101DF000022857D15BE0F0480088401CEE4908807B
:101E00000846008840F24241884203DB40F25230EB
:101E1000E9490880E8480088FFF754FB00F070FFAC
:101E2000E54800884FF47A7190FBF1F03030E349D7
:101E30008872E14800884FF47A7190FBF1F000EB72
:101E40004001C1EBC010DC490988A1EBC00064214E
:101E500090FBF1F03030D949C872D748008864212E
:101E600090FBF1F000EBC00101EB0010D2490988B2
:101E7000A1EB80000A2190FBF1F03030CF490873CC
:101E8000CD4800880A2190FBF1F000EB8000CA49A0
:101E90000978A1EB40003030C84988731321C74846
:101EA000FFF732FB87E00220FEF75CFB83E00120B6
:101EB000C349087000F0E8FC4C2000F0E5FC52201B
:101EC00000F0E2FC422000F0DFFCBE48408802E067
:101ED000A4E072E0A1E0642190FBF1F03030BA4957
:101EE0008872B8484088642190FBF1F000EBC00193
:101EF00001EB0010B3494988A1EB80000A2190FB57
:101F0000F1F03030B049C872AE4840880A2190FBE9
:101F1000F1F000EB8000AB498978A1EB4000303054
:101F2000A9490873A748007A8874A648407AC874FB
:101F3000A448807A0875A348C07A4875A148007BF8
:101F40008875A048407B08769E48807B48769D48EF
:101F5000C07B88769B48007CC8769A48407C08778E
:101F60009848807C48779648007801280BD150200B
:101F70009649C8724C2008734120487359208873D1
:101F80002020C8730EE08E48007802280AD1502025
:101F90008E49C872412008735520487353208873B6
:101FA0004520087413218948FFF7AEFA342186488A
:101FB000FFF7AAFA00BF00BF2FE08548006800695C
:101FC00028B98448006840688149086004E0804876
:101FD000006800697E4908607D480068C1687C48E7
:101FE0000068884719E07C480068406930B97B4840
:101FF0000068C06880687849086004E07648006836
:1020000040697549086075490968C8687249096876
:102010000A6971490968904700BF00BF64480069B8
:1020200000F4006000287DD05F480078022804D0CA
:10203000032878D0042877D118E15E48007820B1D1
:1020400001285AD0022857D15BE05B480088401E27
:10205000594908800846008840F25231884203DC22
:102060004FF487605449088053480088FFF72AFAE4
:1020700000F046FE504800884FF47A7190FBF1F072
:1020800030304E4988724C4800884FF47A7190FB8A
:10209000F1F000EB4001C1EBC01047490988A1EB0A
:1020A000C000642190FBF1F030304449C8724248CE
:1020B0000088642190FBF1F000EBC00101EB0010FF
:1020C0003D490988A1EB80000A2190FBF1F03030F6
:1020D0003A490873384800880A2190FBF1F000EB78
:1020E000800035490978A1EB4000303033498873CE
:1020F00013213248FFF708FAA0E00220FEF732FA77
:102100009CE001202E49087000F0BEFB4C2000F03E
:10211000BBFB522000F0B8FB422000F0B5FB294881
:10212000408802E0BDE08BE0BAE0642190FBF1F072
:1021300030302549887223484088642190FBF1F0B3
:1021400000EBC00101EB00101E494988A1EB8000A3
:102150000A2190FBF1F030301B49C87219484088C1
:102160000A2190FBF1F000EB800016498978A1EB81
:1021700040003030144908731248007A88741148BE
:10218000407AC8740F48807A08750E48C07A48753E
:102190000C48007B88750B48407B08760948807B9B
:1021A00048760848C07B1BE0000000205700002054
:1021B0000000024003000020D0040020070100209E
:1021C000B3020020F4040020DA010020C70100203F
:1021D0007403002070030020C8040020C404002001
:1021E0008876FE48007CC876FC48407C0877FB482F
:1021F000807C4877FA48007801280BD15020F949B3
:10220000C8724C20087341204873592088732020DD
:10221000C8730EE0F248007802280AD15020F14934
:10222000C872412008735520487353208873452095
:1022300008741321EB48FFF767F900BF00BF2FE0D8
:10224000E9480068406928B9E84800688068E649BC
:10225000086004E0E44800684069E3490860E24837
:102260000068C168E0480068884719E0E0480068F5
:10227000806930B9DF480068C068C068DC49086020
:1022800004E0DB4800688069D9490860D9490968D9
:10229000C868D74909680A69D5490968904700BFE5
:1022A00000BFD548006800F4806098B3D348007838
:1022B000022804D003282ED0042865D141E0D0485C
:1022C00090F90000172824DACD480078401C40B26D
:1022D000CB49087008208DF80000084690F90000EE
:1022E000002803DD084690F9000004E0C44890F996
:1022F0000000C0F12000C0B28DF801000222694642
:102300008820FEF765FABF49087000F0F9FCFFF776
:102310001BF939E039E0B4480068C078B24909686F
:10232000497988420CDAB0480068C078401CAE4950
:102330000968C870AC4800688168AB480068884785
:1023400022E0AB48006890F90300A949096891F9B7
:102350000510884217DAA6480068C078401C40B2D1
:10236000A3490968C870A3490968C868A1490968F0
:10237000C9684A689E49096890479D480068816815
:102380009B480068884700BF00BF9B48006800F476
:102390000060A0B399480078022804D003282FD009
:1023A000042866D142E0964890F9000010F11F0F12
:1023B00024DD93480078401E40B2914908700820FF
:1023C0008DF80000084690F90000002803DD08465B
:1023D00090F9000004E08A4890F90000C0F1200064
:1023E000C0B28DF80100022269468820FEF7F0F99C
:1023F0008449087000F084FCFFF7A6F839E039E062
:1024000079480068C07878490968097988420CDD04
:1024100075480068C078401E73490968C8707248E2
:102420000068816870480068884722E0704800684A
:1024300090F903006E49096891F90410884217DD8C
:102440006B480068C078401E40B269490968C8708E
:1024500068490968C86867490968C9684A68644979
:102460000968904762480068816861480068884749
:1024700000BF00BF6448006800F4005000287DD011
:102480005E480078022803D05C480078012875D1A6
:102490005A4800785D490870032058490870097847
:1024A00001EB41015A4A02EB81000C21FFF72CF8A5
:1024B0004E48006840684C4908600846006801F0D2
:1024C000C1FB54480068C0F3034052490968C1F396
:1024D000015101EB810100EB410043490968C870DB
:1024E0004148006881684048006888473E48006865
:1024F00000693D49086047480068C0F3032045492A
:102500000968C1F3023101EB810100EB410036495A
:102510000968C87034480068816833480068884793
:10252000314800680069304908603A48001D006879
:1025300000F00F003749091D0968C1F3011101EBD3
:10254000810100EB410028490968C87026480068ED
:102550008168254800688847234800680069224947
:1025600008602C48001D0068C0F303202949091D9C
:102570000968C1F3003101EB810100E05CE000EB90
:10258000410019490968C8701748006881681648F1
:1025900000688847144800680069134908601D48AE
:1025A000001D0068C0F303401A49091D0968C1F302
:1025B000035101EB810100EB41000B490968C87030
:1025C000094800688168084800688847064800682C
:1025D0000069054908600F48001D1DE0F404002053
:1025E000B3020020C7010020740300207003002004
:1025F000C8040020C404002010080240000000208D
:10260000D2040020CD04002010040240010000206C
:1026100057000020002800400068C0F342300968DD
:10262000C8707D48006881687B48006888477B489F
:1026300000684068784908607948006800F4805074
:10264000C8B378480078022803D076480078042878
:1026500048D17448007804280ED173480068406956
:1026600028B97248006840686F49086004E06E4805
:10267000006840696C49086004206A4908706A482B
:102680000068016968480068884767480068C06852
:1026900080686749086064490968C86864490968CE
:1026A0000A69634909689047614800688168604821
:1026B000006888470BE015E05D48006840695C49A8
:1026C000086008460068816859480068884758488B
:1026D000006840690028EFD153480068C0688068EE
:1026E000534908604F480078022803D04D480078CD
:1026F000012851D14F48007864284DDB00204D4916
:102700000870FDF72FFF3F214B48FEF7FDFE4B48B9
:10271000007802287ED14A480078E8BB422000F0C9
:10272000B3F84C2000F0B0F8522000F0ADF8454866
:102730004088642190FBF1F0303043498872414871
:102740004088642190FBF1F000EBC00101EB001028
:102750003C494988A1EB80000A2190FBF1F0303020
:102760003949C872374840880A2190FBF1F000EBE4
:10277000800034498978A1EB400030303249087339
:102780003048007A88742F48407AC8742D48807A7F
:1027900008752C48C07A00E03CE048752948007B69
:1027A00088752848407B08762648807B48762548EF
:1027B000C07B88762348007CC8762248407C087716
:1027C0002048807C48772148007801280BD1502090
:1027D0001F49C8724C2008734120487359208873E0
:1027E0002020C8730EE01948007802280AD1502032
:1027F0001749C872412008735520487353208873C5
:102800004520087413211248FEF77EFE34210E483D
:10281000FEF77AFE38BD000074030020700300202C
:102820001004024000000020C4040020C004002066
:10283000C8040020DD040020180000200300002050
:10284000CE040020F4040020DA010020B3020020AE
:10285000C701002008B50A48006800F0100068B100
:1028600007480068009006484068009000BF05488F
:10287000006920F001000349086100BF08BD0000A5
:10288000005000400060024030B5034600219F48E0
:1028900083709F48006800F0200018B19C48001D1C
:1028A0000068C2B200200DE000BF994C246804F01B
:1028B0004004002CF9D0954C245C954D2D1D2C60C6
:1028C000441CE0B20428EFDB482B3DD00CDC0D2B80
:1028D00079D004DC012B77D0022B34D1F4E00E2B1D
:1028E00073D0422BF9D108E04C2B54D0502B6DD033
:1028F000512B7CD0522BF0D1C7E0042421E00021E1
:1029000005E0491C8348814201D1012030BD804847
:10291000006800F020000028F3D07D48001D00680A
:10292000C2B2612A01DB572000E03020101A651E78
:10293000AD00A840784D2D782843774D2870601E53
:10294000C4B2002CDBDCD8E0042421E0002105E047
:10295000491C7048814201D10120D7E76C480068CA
:1029600000F020000028F3D06948001D0068C2B2C2
:10297000612A01DB572000E03020101A651EAD00EF
:10298000A840664D2D882843644D2880601EC4B23F
:10299000002CDBDCB1E0042426E0002105E0491C2A
:1029A0005C48814201D10120B0E75948006800F03D
:1029B00020000028F3D05648001D0068C2B2612AEA
:1029C00006DB572005E07CE07DE07BE036E00EE0B2
:1029D0003020101A651EAD00A840504D6D88284368
:1029E0004E4D6880601EC4B2002CD6DC85E0042405
:1029F00021E0002105E0491C4648814201D1012027
:102A000084E74348006800F020000028F3D04048E5
:102A1000001D0068C2B2612A01DB572000E03020AF
:102A2000101A651EAD00A8403C4DED8828433B4D73
:102A3000E880601EC4B2002CDBDC5EE0042421E0F0
:102A4000002105E0491C3348814201D101205DE7A6
:102A50002F48006800F020000028F3D02C48001D0B
:102A60000068C2B2612A01DB572000E03020101A52
:102A7000651EAD00A840294DAD882843274DA8808C
:102A8000601EC4B2002CDBDC37E0002416E000211D
:102A900005E0491C1F48814201D1012036E71C484E
:102AA000006800F020000028F3D01948001D0068DD
:102AB000C2B21A4808300255601CC4B20B2CE6DBC7
:102AC0001BE000BF00BF00BF002413E0002105E0B1
:102AD000491C1348814201D1012017E70C480068C6
:102AE00000F020000028F3D00948001D0068C5B29E
:102AF000601CC4B2022CE9DB00BF00BF002000E074
:102B0000401C084CA042FBD30020FFE6AA02002094
:102B1000004C004080841E00B3020020F40400201A
:102B200040420F0060EC530070B502460B46002196
:102B30002E488270C3702E48006800F0200018B143
:102B40002B48001D0068C4B200200DE000BF284DD6
:102B50002D6805F08005002DF9D0244D2D5C244E04
:102B6000361D3560451CE8B20528EFDB092A1CD16B
:102B7000002517E0002105E0491C1E48814201D1D3
:102B8000012070BD1A48006800F020000028F3D032
:102B90001748001D0068C4B2532C01D10120F0E792
:102BA000681CC5B2052DE5DB17E0002513E0002108
:102BB00005E0491C0F48814201D10120E1E70C48A2
:102BC000006800F020000028F3D00948001D0068CC
:102BD000C4B2681CC5B2022DE9DB002000E0401C35
:102BE000054DA842FBD30020CBE70000AE02002039
:102BF000004C004080841E0020AA4400002809DB0D
:102C000000F01F02012191404209920002F1E022EE
:102C1000C2F80011704710B50C20FDF74DFB0446BB
:102C200000202070A0606060204610BD10B50C2010
:102C3000FDF742FB044600202070A0606060204643
:102C400010BD70B505460E461020FDF735FB044655
:102C50000020207066706560E060A060204670BD56
:102C600000B502461048006840F002000E490860B6
:102C70000846006840EAC20008600846006840F460
:102C80008030086000BF00F015F80028FBD006482F
:102C9000006820F0F800044908600846006820F049
:102CA0000200086000BD0000103C024001460878A8
:102CB0007047000002480068012121EA1040704777
:102CC0000C3C024000B502460B460C48006840F040
:102CD00001000A49086000BFFFF7ECFF0028FBD0A5
:102CE000137000BFFFF7E6FF0028FBD00348006821
:102CF00020F001000149086000BD0000103C0240C6
:102D000000B50220FFF7ACFF14480078042804D176
:102D100002211348FFF7D6FF04E01048017810485D
:102D2000FFF7D0FF0F4801780D48401CFFF7CAFF9E
:102D30000D4800781F30C1B20948801CFFF7C2FF60
:102D40000A48008801120648C01CFFF7BBFF07486D
:102D500001780348001DFFF7B5FF00BD000000200B
:102D60000080000803000020D2040020D0040020CE
:102D700010B54348006840F0200041490860032036
:102D8000FFF76EFF3F4800688468E1783E48FFF730
:102D900099FF6469E1783C48401CFFF793FF646940
:102DA000E1783948801CFFF78DFF38480068846857
:102DB000E1783548C01CFFF785FF6469E178324847
:102DC000001DFFF77FFF324800688468E1782E48D5
:102DD000401DFFF777FF6469E1782B48801DFFF7FE
:102DE00071FF2C4800688468E1782748C01DFFF710
:102DF00069FF6469E17824480830FFF763FF2648DB
:102E000000688468E17820480930FFF75BFF646957
:102E1000E1781D480A30FFF755FF6469E1781A48E8
:102E20000B30FFF74FFF1D4800688468E1781648B3
:102E30001030FFF747FF6469E17813481130FFF75E
:102E400041FF6469E17810481230FFF73BFF646985
:102E5000E1780D481330FFF735FF6469E1780A48DF
:102E60001430FFF72FFF6469E17807481530FFF74A
:102E700029FF0348006840F400100149086010BDB4
:102E800018080240A804002000C00008AC0400207C
:102E9000B0040020B4040020B8040020BC040020CA
:102EA00088B0FDF7F3FFFDF773FEFE48006840F0C1
:102EB0004000FC4908600846006840F08040086017
:102EC000F948806940F48070F7498861F7480068E4
:102ED00040F00050F5490860F548F6490860F648AA
:102EE0000860FEF7B9F90721F448FEF70DFB002052
:102EF000059002E00598401C0590F149059888422C
:102F0000F8D33120EF490872342048720D21ED4882
:102F1000FEF7FAFAFEF764F8FDF788FDFDF776FF95
:102F2000FDF7ECFDFEF7C2F900210920FFF7FCFDDB
:102F3000E54908700846007858B91E210620FFF7B9
:102F4000F3FDE149087000211120FFF7EDFDDE4996
:102F50000870FDF72BFFDD48FFF7A8FEDC4908707D
:102F600008460078FF2807D008460078022806D0D7
:102F700008460078012802D00220D5490870D348BD
:102F8000401CFFF793FED349087008460078FF28DD
:102F900003D008460078032802DD0120CD490870DF
:102FA000CA48801CFFF782FE1F3840B2CA49087029
:102FB000084690F90000172805DC084690F9000043
:102FC00010F11F0F02DA0020C3490870BF48001D2E
:102FD000FFF76CFEC1490880BC48C01CFFF766FEC5
:102FE000BE49098841EA0020BC490880084600889B
:102FF000FF280BD00846008840F24241884209DD94
:10300000B648008840F25231884203DA4FF48260B9
:10301000B2490880FFF70AFEB1490860B148B249D9
:1030200017220023CDE9002102901A46AFA1AC4837
:10303000006800F0C5FEAB48AB493B220023CDE958
:10304000002102901A46AAA1A548006800F0B8FE27
:10305000A448A5491F220123CDE9002102900022A6
:10306000A4A19F48006800F0ABFE9E489E490C2238
:103070000123CDE90021029000229FA19848006819
:1030800000F09EFE974898491E221223CDE90021A8
:103090000290002299A19248006800F091FE9148A8
:1030A000914907220123CDE9002102901A4694A1FB
:1030B0008B48006800F084FE07219248FFF7C1FDAD
:1030C0009149086091480021914ACDE90112CDE96A
:1030D00003106FF00E035A1C00918EA18A480068FD
:1030E00000F012FE89488C498C4A0423CDE9013254
:1030F000CDE9031003200023024689A100908248F5
:10310000006800F001FE81488649844A0623CDE923
:103110000132CDE9031001200023024682A1009074
:103120007948006800F0F0FD7748006880680690F4
:103130007E48FFF7BBFD07900798FF2811D006983F
:1031400090F90410079840B281420ADC069890F981
:103150000510079840B2814203DB079841B20698F8
:10316000C1700698406906907048401CFFF79EFDAC
:1031700007900798FF2811D0069890F90410079837
:1031800040B281420ADC069890F90510079840B2D7
:10319000814203DB079841B20698C17006984069E6
:1031A00006906248801CFFF781FD07900798FF2872
:1031B00011D0069890F90410079840B281420ADCB9
:1031C000069890F90510079840B2814203DB0798F2
:1031D00041B20698C17009215548FFF732FD5549A3
:1031E00008604A4800214A4ACDE90112CDE903109E
:1031F0000F204342012247A100904E48006800F092
:1032000083FD42484C49454A0523CDE90132CDE9C9
:10321000031003200023024641A1009045480068A6
:1032200000F072FD43480068806806903F48C01C6B
:10323000FFF73CFD07900798FF2811D0069890F9FA
:103240000410079840B281420ADC069890F90510F4
:10325000079840B2814203DB079841B20698C170DB
:103260000698406906903148001DFFF71FFD079042
:103270000798FF2811D0069890F90410079840B2DB
:1032800081420ADC069890F90510079840B2814205
:1032900003DB079841B20698C1700A212448FFF762
:1032A000D0FC4BE018040240000002401808024025
:1032B00023016745043C0240AB89EFCD04000020A8
:1032C000809698000B000020CE04002000800008AB
:1032D0000000002003000020D2040020D0040020C1
:1032E00070030020453C0008853C0008745F6800BE
:1032F000745F6D00645F6400645F6D00645F7900FB
:10330000645F7700C5080008A8040020DD3A0008C3
:10331000313A00086174740099030020093C0008E8
:10332000635F6600A9030020685F710000C00008A9
:10333000DD090008AC040020B1030020FE4908604C
:10334000FE480021FE4ACDE90112CDE903100F200D
:1033500043420122AFF244010090F748006800F0B8
:10336000D3FCF648F749F84A0523CDE90132CDE907
:103370000310022000230246AFF254010090EE48F1
:10338000006800F0C1FCEC48006880680690EF48D7
:10339000FFF78CFC07900798FF2811D0069890F94A
:1033A0000410079840B281420ADC069890F9051093
:1033B000079840B2814203DB079841B20698C1707A
:1033C000069840690690E148401CFFF76FFC0790A3
:1033D0000798FF2811D0069890F90410079840B27A
:1033E00081420ADC069890F90510079840B28142A4
:1033F00003DB079841B20698C1700B21D448FFF750
:1034000020FCD4490860CD480021CD4ACDE9011205
:10341000CDE903100F2043420122AFF208110090C2
:10342000CC48006800F070FCC448CB49C64A05236C
:10343000CDE90132CDE90310032000230246AFF2AB
:1034400018110090C348006800F05EFCC148006895
:1034500080680690BD48801CFFF728FC07900798FD
:10346000FF2811D0069890F90410079840B28142C5
:103470000ADC069890F90510079840B2814203DBF8
:10348000079841B20698C170069840690690AF4807
:10349000C01CFFF70BFC07900798FF2811D0069877
:1034A00090F90410079840B281420ADC069890F91E
:1034B0000510079840B2814203DB079841B2069895
:1034C000C1700C21A548FFF7BCFBA54908609B48CB
:1034D000A4499D4A0023CDE90132CDE9031004201F
:1034E0000246A1A100909E48006800F00DFC9348A0
:1034F0009E49954A0323CDE901320093CDE903109B
:10350000002303229AA19648006800F0FDFB8B4837
:1035100098498D4A0523CDE90132CDE903100320F6
:103520000023024694A100908D48006800F0ECFB57
:103530008B480068806806908448001DFFF7B6FB42
:1035400007900798FF2811D0069890F90410079863
:1035500040B281420ADC069890F90510079840B203
:10356000814203DB079841B20698C1700698406912
:1035700006907648401DFFF799FB07900798FF28B3
:1035800011D0069890F90410079840B281420ADCE5
:10359000069890F90510079840B2814203DB07981E
:1035A00041B20698C1700698406906906748801D30
:1035B000FFF77CFB07900798FF2811D0069890F939
:1035C0000410079840B281420ADC069890F9051071
:1035D000079840B2814203DB079841B20698C17058
:1035E0000D216648FFF72DFB65490860534800210F
:1035F000534ACDE90112CDE903100F206FF04E03BD
:103600000A4660A100905E48006800F07DFB4B48D0
:1036100000214B4A0123CDE90132CDE903100F20EF
:103620006FF04E030A4658A100905548006800F01C
:103630006BFB42480021424A0223CDE90132CDE929
:1036400003100F206FF04E030A4650A100904C4823
:10365000006800F059FB39480021394A0323CDE9BD
:103660000132CDE903100F206FF04E030A4648A146
:1036700000904348006800F047FB30480021304A82
:103680000423CDE90132CDE903100F206FF04E0382
:103690000A4640A100903A48006800F035FB2748F0
:1036A0000021274A0523CDE90132CDE903100F207F
:1036B0006FF04E030A4638A100903148006800F0D0
:1036C00023FB2F4800688068069020480B30FFF7E6
:1036D000EDFA07900798FF2811D0069890F904108A
:1036E000079840B281420ADC069890F905100798C5
:1036F00040B2814203DB079841B20698C170069838
:103700004069069011480C30FFF7D0FA07900798EF
:10371000FF2844D0069890F90410079840B28142DF
:103720003DDC069890F90510079840B2814236DBDF
:10373000079841B2069831E0B0040020DD3A000855
:10374000313A0008C1030020093C000805C0000808
:10375000DD090008B4040020CD0300205109000851
:10376000B8040020DD03002073636F00F103002024
:103770006D6366000104002062636600170900089B
:10378000BC040020665F6C00665F7200725F6C00B4
:10379000725F720073776C0073777200C170069865
:1037A000406906907C48FFF781FA07900798FF2848
:1037B00011D0069890F90410079840B281420ADCB3
:1037C000069890F90510079840B2814203DB0798EC
:1037D00041B20698C1700698406906906E48401C38
:1037E000FFF764FA07900798FF2811D0069890F920
:1037F0000410079840B281420ADC069890F905103F
:10380000079840B2814203DB079841B20698C17025
:103810000698406906906048801CFFF747FA0790B9
:103820000798FF2811D0069890F90410079840B225
:1038300081420ADC069890F90510079840B281424F
:1038400003DB079841B20698C1700698406906905C
:103850005148C01CFFF72AFA07900798FF2811D09B
:10386000069890F90410079840B281420ADC069845
:1038700090F90510079840B2814203DB079841B2E6
:103880000698C170FFF7C7F944490860444B4548A2
:1038900045A102684148006800F06CFA404B454879
:1038A00045A102683D48006800F064FA3C4B454879
:1038B00045A102683948006800F05CFA384B454879
:1038C00045A102683548006800F054FA344B454879
:1038D00045A102683148006800F04CFA304B454879
:1038E00045A102682D48006800F044FA2B480068A2
:1038F00040684449086008460068C06880684249DA
:103900000860FDF7FBFB4149087041480088FDF75E
:10391000D9FD3E4908703F48007800EB40003E4921
:1039200001EB80000C210590FDF7EEFD3948007891
:10393000022818D139483A49097800EB4110202172
:103940000590FDF7E1FDFDF7FFFDFDF751FE354860
:10395000006840F48000334908603348006840F450
:10396000005031490860FDF73BFA2920FFF746F97E
:103970003820FFF743F92D20FFF740F92A48006867
:1039800040F01000284908602848806940F08070A5
:103990002649886100BFFEE712C00008C00400206D
:1039A000ED3B0008A80400207464615F6C6F7564CF
:1039B00000000000AC0400207464615F74726562F2
:1039C00000000000B00400207464615F6D696464ED
:1039D00000000000B40400207464615F62617373CE
:1039E00000000000B80400207464615F73756277A2
:1039F00000000000BC0400207464615F7361747493
:103A000000000000C4040020C8040020CD040020F1
:103A1000D004002000000020570000208700002074
:103A20000300002018040240180802400000024071
:103A300010B5044600BF2748C06D0028FBD12648BA
:103A400021880180A1788170E07808B9202006E003
:103A500094F90300002801DA2D2000E02B201E49F4
:103A6000487294F90300002805DD94F903000A2147
:103A700090FBF1F005E094F9030040420A2190FB2D
:103A8000F1F030301449887294F9030000280BDDFE
:103A900094F903000A2190FBF1F000EB800094F907
:103AA0000310A1EB40000CE094F9030040420A210E
:103AB00090FBF1F000EB800094F903104942A1EB78
:103AC000400030300449C87210210348FDF71CFD46
:103AD00010BD0000006002407803002070B504466D
:103AE0000E46A5682078022826D1002013E000EBBE
:103AF00040013B4A02EB81012A880A80AA788A7039
:103B0000302100EB4002082303EB8202344B99542E
:103B10006D69411CC8B221788142E8DC3120F1791D
:103B200001EB4101082202EB81012D4A505418217A
:103B30001046FDF7E9FC52E02078032826D100204A
:103B400013E000EB4001274A02EB81012A880A803A
:103B5000AA788A70302100EB4002082303EB82022E
:103B6000204B99546D69411CC8B221788142E8DC30
:103B70003120F17901EB4101082202EB8101194A60
:103B8000505424211046FDF7BFFC28E02078062879
:103B900025D1002013E000EB4001134A02EB810124
:103BA0002A880A80AA788A70302100EB4002082314
:103BB00003EB82020C4B99546D69411CC8B2217809
:103BC0008142E8DC3120F17901EB4101082202EB6E
:103BD0008101054A505448211046FDF795FC70BDFF
:103BE00011040020290400204D04002010B50446D3
:103BF000044821680160616841601021401FFDF7A1
:103C000083FC10BD9A04002010B5044600BF0B4889
:103C1000C06D0028FBD10A4821880180A1788170FD
:103C200094F90300E16801EB800105480968C0F8D8
:103C300009101121FDF768FC10BD00000060024072
:103C40008803002010B50446002009E0302100EB75
:103C50004002082303EB8202094B9954411CC8B26D
:103C60000628F3DB3120A17901EB4101082202EBA8
:103C70008101034A505448211046FDF745FC10BD10
:103C8000E902002010B5044600BF1B48C06D0028A3
:103C9000FBD1A078772811D1E078401E00EBC0005E
:103CA0001649014416480A6802604A684260097A67
:103CB000017216210938FDF727FC1BE01148218805
:103CC0000180A1788170E0780A2190FBF1F030301A
:103CD0000C494872E0780A2190FBF1F000EB80007B
:103CE000E178A1EB40003030064988720F21054889
:103CF000FDF70AFC10BD0000006002403103002007
:103D0000DC020020C40200202DE9F05F05460E46CB
:103D100017469846DDE90BABDDF828901C20FCF730
:103D2000CBFA044614B90320FCF7F5FA308820805A
:103D3000B078A070E77084F8048084F8059084F867
:103D400006A0C4F808B00D98E0600E9820612878AD
:103D5000E07100206061E868A061E86808B1E86887
:103D60004461EC60A86800B9AC602878401C2870F9
:103D7000BDE8F09F2DE9F04104460E4617469846EF
:103D80001820FCF799FA054615B90320FCF7C3FA89
:103D90003068286070686860EF60C5F8108020782F
:103DA000287200206861A06808B1A0684561A5601C
:103DB000606800B965602078401C2070BDE8F08123
:103DC0002DE9F05F05460E4617469846DDE90BAB38
:103DD000DDF828901820FCF76FFA044614B9032088
:103DE000FCF799FA30882080B078A070E77084F8EA
:103DF000048084F80590C4F808A0C4F80CB02878B2
:103E0000A07100202061A8686061A86808B1A86856
:103E10000461AC60686800B96C602878401C287048
:103E2000BDE8F09F4FF04070E1EE100A70470401CA
:103E300005000000543E000800000020E0040000DF
:103E4000C401000894400008E0040020C0090000FC
:103E500028020008120001101272657374FFFFFF40
:103E60006C6F642E76616C3D30300D101174696D8D
:103E7000652E7478743D2200003A00002220700400
:103E800064617413322E0341164279281007776556
:103E9000656B20200F2116600A70616765206C6FCA
:103EA00061640C6005616F66661860056D61696E1E
:103EB0000C20047365747C4004696E70465004469F
:103EC0004D220FA00B62636F3D3033343831352003
:103ED000B3425420A006313438343740A00455533F
:103EE0004241123641A23840B004415558201005D5
:103EF00034353132A4126DD84121B0073030302E24
:103F0000302213C0064E4F44657613C006436F6ED1
:103F10006E2026E005504C415913C00541555345CC
:103F200039251D4004766F6C6C60042D37391031D3
:103F30008DA0053535333520B0044D55542051CD75
:103F4000A19A51F08161222001213615AA923013E5
:103F50005101511A0217311A8230A88128315012AA
:103F60006563B007666F6E743D340EB2350E258DF5
:103F700064044144434C10042E30567515543A25C0
:103F8000165275D9125F0183487A7820084154236C
:103F90004D560D0A07424107424407424507D010DB
:103FA0004A0D0A007E0200EF7E030000EF020001CE
:103FB000114D615739A8835F7766310131BF4B5F7F
:103FC00068DE310C726D0C9004645F640CA1189271
:103FD000790C7277301406204D4F4E44EA200720AA
:103FE00020545545530A30055745444E0A30055470
:103FF0004855521230052046524908400653415454
:1040000055520A42553661B45B617470422DB584D5
:1040100004635F661B2111200E464C41542034304E
:104020003020383030320814094F4E204F46462099
:104030003154100731322E35313508123708300926
:104040002E3020312E32353208410C2005312E35EC
:104050002010100B20353520203835203132243304
:1040600036304018062035303031E5123108123232
:104070000C12301813303820116B123267254D6541
:104080001C01760C3D320465BE157402280001C384
:0440900010042D00EB
:040000050800018965
:00000001FF
